:020000040800F2
:1000000098170020E92C0008E1030008E30300082A
:10001000E7030008EB030008EF03000800000000FE
:10002000000000000000000000000000F3030008D2
:10003000F503000800000000F7030008F9030008BA
:10004000032D0008032D0008032D0008032D0008D0
:10005000032D0008032D0008032D0008032D0008C0
:10006000032D0008032D0008032D0008032D0008B0
:10007000032D0008032D0008032D0008032D0008A0
:10008000032D0008032D0008032D0008032D000890
:10009000032D0008032D0008032D0008032D000880
:1000A000032D0008032D0008032D0008032D000870
:1000B000032D000849020008032D0008032D000845
:1000C000032D0008032D0008032D0008032D000850
:1000D000032D0008032D0008032D0008032D000840
:1000E000032D0008032D0008032D0008032D000830
:1000F000032D0008032D0008032D0008032D000820
:10010000032D0008032D0008032D0008032D00080F
:100110005B2C0008032D0008032D0008032D0008A8
:10012000032D0008032D0008032D0008032D0008EF
:1001300000F002F800F045F80AA090E8000C8244B4
:100140008344AAF10107DA4501D100F03AF8AFF291
:10015000090EBAE80F0013F0010F18BFFB1A43F0A5
:1001600001031847B0560000D0560000103A24BFD3
:1001700078C878C1FAD8520724BF30C830C144BF0C
:1001800004680C607047000000230024002500264E
:10019000103A28BF78C1FBD8520728BF30C148BFEA
:1001A0000B607047642905F06D81782905F0A68100
:1001B000632905F0B082002070471FB51FBD10B540
:1001C00010BD05F0E3FA1146FFF7F7FF00F008F85D
:1001D00005F001FB03B4FFF7F2FF03BC02F0D4FC0F
:1001E00008B502F0AFFB01F0B0FD00F019FA4FF4D2
:1001F000E13002F0D8FC4FF4E13000F0C7FA41F6EC
:100200001F41C72002F0DAFB02F002F802F01BFCEB
:100210000020102308220721009002F027F901F0A6
:1002200091F840F27121042002F0F5FB0BE002F09E
:1002300081F901F003F801F06FF900F047FA02F0DC
:100240001DFC04F0A4FBF2E710B50121574804F0AF
:1002500080FB00287ED00121544804F08BFB5448D9
:100260000088401C524908800846008841F270719D
:10027000884202DD00204E4908804D480088322126
:1002800090FBF1F201FB120028B94A480068C04314
:100290004949C1F890014649088800EBD0714910DE
:1002A000A0EB410169BB45480078012806D002282F
:1002B0000CD0032812D0042821D116E03D48001F9D
:1002C0000068C0433C49C1F88C0119E03948001D61
:1002D0000068C0433849C1F8940111E0354800680E
:1002E000C0433549C1F890010AE03548007828B983
:1002F00034480068C0433449C1F8880100E000BFB9
:1003000000BF2F48C06820B12D48C068401E2C494E
:10031000C8602E480089B0F5FA6F01DC012000E0CA
:100320000020002804DD29480089401E2749088153
:100330002748406820B126484068401E244948604C
:100340001F48406820B11E484068401E1C49486054
:100350001B4800E025E0806820B119488068401EF5
:10036000174988601B4840881B4908801B4803F0D8
:10037000B1FBC0F57A701749488008464088164995
:10038000098888420ED11348408858B11148008826
:10039000401C1049088008460088642805DD642058
:1003A000088002E000200B49088010BD00040040D6
:1003B000020000209081214200802142180000208C
:1003C0005000002088812242008022422C0D002013
:1003D0004C04002060000020000000206C0002405F
:1003E000704700BFFEE700BFFEE700BFFEE700BFAB
:1003F000FEE7704770477047704700000CB500205B
:10040000019000906C48006840F480306A490860B0
:1004100000BF6948006800F4003000900198401C5B
:100420000190009818B90198B0F5A06FF1D1624819
:10043000006800F4003010B10120009001E00020BD
:1004400000900098012843D15C48006840F01000FB
:100450005A4908600846006820F003000860084612
:10046000006840F002000860534840685249486004
:100470000846406848600846406840F4806048602C
:100480000846406820F47C1048600846406840F404
:10049000E81048600846006840F08070086000BFBF
:1004A0004548006800F000700028F9D042484068D4
:1004B00020F00300404948600846406840F00200D0
:1004C000486000BF3C48406800F00C000828F9D1A3
:1004D0000CBD10B5FFF792FF10BD10B5364800688F
:1004E00040F001003449086008464068344908403B
:1004F0003149486008460068324908402E49086082
:100500000846006820F4802008600846406820F40F
:10051000FE0048604FF41F008860FFF7DAFF4FF0DD
:1005200000602949086010BD10B50021002000229C
:10053000214B5B6803F00C0121B1042906D0082986
:1005400028D107E0214B224C236027E01F4B204C91
:10055000236023E0184B5B6803F47010164B5B6854
:1005600003F48032022303EB904022B9194B43433A
:10057000174C23600DE0104B5B6803F4003323B18C
:10058000144B4343124C236003E0104B4343104C85
:10059000236003E00D4B0E4C236000BF00BF064BF1
:1005A0005B68C3F303130C4CE15C094B1B68CB4045
:1005B000074C236010BD00000010024000200240E4
:1005C0000000FFF8FFFFF6FE08ED00E000127A00E1
:1005D0000400002000093D000800002008B50121AA
:1005E000482002F02BFF2020ADF8000010208DF8ED
:1005F000030003208DF8020069463A4802F062FCCD
:100600002021384802F00BFD2020ADF8000069469B
:10061000354802F057FC2021334802F000FD08BDA8
:1006200008B501213D2002F009FF01212F4802F009
:100630001AFD3820ADF8000010208DF803000220CC
:100640008DF802006946274802F03CFC1020ADF806
:1006500000006946264802F035FC4020ADF8000055
:100660006946234802F02EFC8020ADF80000694660
:100670001F4802F027FC0420ADF8000069461D4821
:1006800002F020FC01201C4908601C49C1F89401BB
:100690001B490860091F08601A4908601A49086068
:1006A0001949083108601949C1F89C014FF4FA70E2
:1006B00002F067F90020104908601149091D08601F
:1006C000091F08601249C1F8B00108BD114800783F
:1006D00018B101200849086002E004200E490870A2
:1006E00070470000000C014000180140000230007B
:1006F000000801400014014088812242008021420C
:1007000090812142B0012242900121420000214209
:1007100000002242500000201800002070B504465E
:100720000D460021204603F0BEF92946204603F07D
:10073000CFF90121204603F0B6F970BDF0B58BB0BA
:1007400007460C4615461E460121084602F069FE82
:10075000384603F0DBF800940195002002900396E0
:10076000049080200590002006900790202008909B
:10077000C001099000200A906946384603F068F9E4
:100780000121384603F08FF90BB0F0BD10B586B0EB
:1007900004460121480402F05EFE0121042002F01B
:1007A0004DFE0420ADF8140002208DF8160018202C
:1007B0008DF8170005A9FE4802F084FB0820ADF86B
:1007C000140004208DF8170005A9F94802F07AFBFF
:1007D00001940020ADF80800ADF80A00ADF80C0057
:1007E000ADF810000C20ADF80E0001A9F14802F0A0
:1007F000CCFE4FF47A73F04AEE49091DEF48FFF73B
:100800009DFF01224021EB4802F07CFF0121E948D5
:1008100002F047FF06B010BD00BFE649098801F0AD
:1008200040010029F9D0E349091D088000BFE149D2
:10083000098801F040010029F9D0704710B503463E
:100840000C46002204E0985CFFF7E6FF501C82B2E1
:10085000A242F8DB10BD00B5024603E012F8010B1E
:10086000FFF7DAFF10780028F8D100BD10B5024676
:100870000B460020002102E0545C6040491C994274
:10088000FAD310BD01460A291AD2DFE801F00507A4
:10089000090B0D0F11131517002070470120FCE7FD
:1008A0000220FAE70320F8E70420F6E70520F4E742
:1008B0000620F2E70720F0E70820EEE70920ECE742
:1008C0000020EAE70146392916DDA1F1410006289A
:1008D00010D2DFE800F0030507090B0D0A2070476E
:1008E0000B20FCE70C20FAE70D20F8E70E20F6E7D6
:1008F0000F20F4E700BF00BFA1F13000C0B2EEE767
:100900000146092916DDA1F10A00062810D2DFE808
:1009100000F0030507090B0D412070474220FCE75A
:100920004320FAE74420F8E74520F6E74620F4E7BD
:1009300000BF00BF01F13000C0B2EEE710B50024E7
:100940009FA004F035FD00BF0BE0A048A11D405C56
:100950009F4908550846015D9EA004F029FD601CD2
:10096000C4B2072CF1DB9CA004F022FD00240CE0B3
:10097000964804F10E01415C9548C01D0155015D8A
:1009800094A004F015FD601CC4B2082CF0DB95A007
:1009900004F00EFD00240CE08C4804F11701415CCA
:1009A0008B480F300155015D8AA004F001FD601CE9
:1009B000C4B2072CF0DB8548083890F8270084493A
:1009C00088750846817D8BA004F0F2FC8DA004F0B0
:1009D000EFFC7E48083890F829007D49C8757B48AF
:1009E000083890F82A107A480176027EC17D89A0E5
:1009F00004F0DEFC89A004F0DBFC10BD10B591A072
:100A000004F0D6FC71480838007D3038012839DC04
:100A10006E480838807D3038012833DC6B48083850
:100A2000007E303801282DDC68480838807E303858
:100A3000012827DC65480838007F3038012821DC90
:100A400062480838807F303801281BDC5F4808384E
:100A500090F820003038012814DC5C48083890F801
:100A60002200303801280DDC5848083890F824005E
:100A70003038012806DC5548083890F82600303810
:100A8000012806DD01207A4908704FF47A70486029
:100A900004E00020764908706420486010BD2DE90C
:100AA000FE4F4FF0000A4949083991F822103039B9
:100AB000C8B2FFF7E7FE044604EB84004FF6FF716F
:100AC00001EA40044149083991F823103039C8B28D
:100AD000FFF7D8FE044467484078A04205D0122CA6
:100AE00003DB64494C704FF00A0A38490839497FE2
:100AF0003039C8B2FFF7C6FE054605EB85004FF654
:100B0000FF7101EA400531490839897F3039C8B29F
:100B1000FFF7B8FE054457488078A84205D0002D5D
:100B200003DD54498D704FF00A0A28490839897E3F
:100B30003039C8B2FFF7A6FE064606EB86004FF630
:100B4000FF7101EA400621490839C97E3039C8B22F
:100B5000FFF798FE06444748C078B04205D0002E03
:100B600003DD4449CE704FF00A0A18490839097C60
:100B70003039C8B2FFF786FE074607EB87004FF60D
:100B8000FF7101EA400711490839497C3039C8B280
:100B9000FFF778FE0744083736480079B84203D09B
:100BA00034490F714FF00A0A08490839897C63E01B
:100BB0000008014000440040640000206C00024036
:100BC000B1BEBBFAB5D8D6B7A3BA00000005002065
:100BD000E8080020256300000D0AD0F2C1D0BAC594
:100BE000A3BA00000D0ACDA8B2A6B5D8D6B7A3BA4D
:100BF000000000000D0AD3C3BBA7CCD8D5F7A3BA19
:100C0000256300000D0AB7FECEF1C6B5B6C8A3BA7B
:100C10000000000025632563530D0A002D2D2D2DA6
:100C20002D2D2D2D2D2D2D2D2D2D2D2D2D2D2D2DF4
:100C30002D2D2D2D2D2D2D2D2D2D2D2D2D2D2D2DE4
:100C40002D0D0A000D0A2D2D2D2D2D2D2D2D2D2D87
:100C50002D2D2D2D2D2D2D2D2D2D2D2D2D2D2D2DC4
:100C60002D2D2D2D2D2D2D2D2D2D2D0D0A0000007E
:100C7000500000202C0D00203039C8B2FFF702FED2
:100C8000814609EB89004FF6FF7101EA4009F949F5
:100C9000C97C3039C8B2FFF7F5FD8144F648407988
:100CA000484504D0F44981F805904FF00A0AF1490B
:100CB000097D3039C8B2FFF7E5FD804608EB8800B2
:100CC0004FF6FF7101EA4008EA49497D3039C8B260
:100CD000FFF7D8FD8044E8488079404506D0E648D3
:100CE0008079A0EB080AE44981F80680E24880791F
:100CF000E1494979E04A1279CDE900210290DE48C4
:100D0000C37882784178DDA004F052FBAFF2CC00CA
:100D100004F04EFBBAF1050F02DA1AF1050F02DCFE
:100D2000D54800F021FFBDE8FE8F08B5D148807B93
:100D30008DF80000CF48C07B8DF80100CD48007CC5
:100D40008DF8020000208DF80300D3A1684604F05E
:100D50003BFCD8B9D1A004F02BFBC648807C5928B5
:100D600003D1D1A004F024FB02E0D1A004F020FBC9
:100D7000D1A004F01DFBBF48007D592803D1D1A0AC
:100D800004F016FB02E0D1A004F012FBD1A16846EA
:100D900004F01AFCD8B9D0A004F00AFBB548807C56
:100DA000592803D1C0A004F003FB02E0C0A004F066
:100DB000FFFACCA004F0FCFAAE48007D592803D11C
:100DC000C0A004F0F5FA02E0C0A004F0F1FAA948CE
:100DD000C27E817EC6A004F0EBFAAFF2C01004F030
:100DE000E7FAA448007D59280ED1A248807C5928F2
:100DF0000AD1C6480078401CC449087008460078EB
:100E0000032801DB002008709A49C97E3039C8B236
:100E1000FFF738FD02469749897E3039C8B2FFF79F
:100E200031FD00EB800002EB4000B949C860084684
:100E3000C068801D32214843B549C86008BD10B55F
:100E40008C4991F822103039C8B2FFF71BFD00EB36
:100E500080004006000EAF490870864991F82310C3
:100E60003039C8B2FFF70EFDAA4909780844A949EC
:100E70000870804991F824103039C8B2FFF702FD9C
:100E800000EB80004006000EA2494870794991F8B5
:100E900025103039C8B2FFF7F5FC9E49497808445F
:100EA0009C494870734991F827103039C8B2FFF750
:100EB000E9FC00EB80004006000E964988706D4901
:100EC00091F828103039C8B2FFF7DCFC91498978D5
:100ED000084490498870674991F829103039C8B2A0
:100EE000FFF7D0FC00EB80004006000E8949C87077
:100EF000604991F82A103039C8B2FFF7C3FC854920
:100F0000C97808448349C8705A4890F82C00087181
:100F100081A004F04DFA7F48017882A004F048FADD
:100F20007C48417881A004F043FA7A48817881A016
:100F300004F03EFA7748C1787FA004F039FA75488A
:100F400001797FA004F034FA4A4991F82E10303923
:100F5000C8B2FFF797FC642148437A4908704549B5
:100F600091F82F103039C8B2FFF78CFC00EB8000ED
:100F70007449097801EB4000724908703D4991F8C5
:100F800030103039C8B2FFF77DFC6E49097808444B
:100F90006C490870374991F831103039C8B2FFF701
:100FA00071FC00EB80004006000E66494870314934
:100FB00091F832103039C8B2FFF764FC61494978C2
:100FC0000844604948702B4991F834103039C8B250
:100FD000FFF758FC00EB80004006000E594988706E
:100FE000244991F835103039C8B2FFF74BFC554908
:100FF00089780844534988701E4991F83610303971
:10100000C8B2FFF73FFC00EB80004006000E4D49E0
:10101000C870184991F837103039C8B2FFF732FC60
:101020004849C97808444749C870124890F83900BF
:10103000087145A004F0BCF94248017839A004F0D9
:10104000B7F94048417839A004F0B2F93D488178B9
:1010500038A004F0ADF93B48C17837A004F0A8F9F6
:101060003848017936A004F0A3F9AFF2284004F023
:101070009FF910BDF80400202C0D00205254433A73
:1010800020323025642D25642D2564202025643AE6
:1010900025643A25640A000044574100B6A8CEBB37
:1010A000C9EAC7EB00000000B3C9B9A60000000000
:1010B000CAA7B0DC0000000020B7FECEF1C6B5B66E
:1010C000C8000000D2D1B5BD00000000CEB4B5BD4F
:1010D0000000000054584100CDA8D0C5C9EAC7EBB4
:1010E0000000000020B7A2C9E4C6B5B6C8000000E1
:1010F00020B5BDB4EFB7FECEF1C6B5B6C8CAA3D30E
:10110000E025632563C3EB0D0A0000004C040020BA
:1011100050000020F50C00200D0ACEB3B6C8A3BACB
:10112000000000002564A1E3000000002564A1E4A4
:101130000000000025642E002564A1E500000000E9
:1011400020256300EB0C00200D0ABEADB6C8A3BA83
:101150000000000010B50024F7A004F029F91324C2
:1011600007E0F648015DAFF2945004F021F9601CED
:1011700084B2F2480838C088A042F2DCAFF23C509A
:1011800004F016F910BD10B5002400BF0CE0EB48C8
:10119000005DEA49083908550846015DAFF2CC50B8
:1011A00004F006F9601C84B2052CF0DBE4A1E348EE
:1011B000083804F009FA28B9E3A004F0F9F8FFF7B9
:1011C000BDFB3AE0E4A1DD48083804F0FDF928B998
:1011D000E3A004F0EDF8FFF7A8FD2EE0E4A1D74866
:1011E000083804F0F1F928B9E3A004F0E1F8FFF7BA
:1011F00056FC22E0E4A1D148083804F0E5F928B90A
:10120000E3A004F0D5F8FFF7F9FB16E0E4A1CB4822
:10121000083804F0D9F928B9E3A004F0C9F8FFF7B9
:101220000EFE0AE0E4A1C548083804F0CDF920B963
:10123000E3A004F0BDF8FFF78DFF10BD70B50024EA
:10124000E448008802286FDD0020E2490880E2A01F
:1012500004F0AEF800BF08E0DE48001D015DAFF20B
:101260008C6004F0A5F8601C84B2DA484088A04283
:10127000F2DCDBA1D748001D04F06CF9054601241F
:1012800014E0285D2A2805D1D2484088401FA0429A
:1012900000DC0CE02A5D601EA8490A54B4F5806F9A
:1012A00002DDD0A004F084F8601C84B2E9E700BF3E
:1012B000601EA2490839C8800846C1880830FFF777
:1012C000D5FA0646A01C2B5C601C2A5C3146C9A0DE
:1012D00004F06EF8A11C685CFFF7F4FA0346611C89
:1012E000685CFFF7EFFA03EB0010B04205D1CBA02A
:1012F00004F05EF8FFF747FF02E0CBA004F058F8D7
:101300004FF47A71CB48FFF709FA002405E0002179
:10131000B048001D0155601C84B2AE484088A04210
:10132000F5DC0020AB49488070BD10B503460C4683
:10133000002204E0985CFFF76FFA501C82B2A242D0
:10134000F8DB10BD1FB5BCA004F032F8C44890F81B
:10135000AA00C34991F8A910C14A92F8A820C04B2D
:1013600093F8A730CDE90032CDE90210BC4890F8DF
:10137000A63090F8A52090F8A410BAA004F018F8B0
:10138000C0488079BF494979BE4A1279CDE9002128
:101390000290BC48C37882784178BBA004F008F87A
:1013A000C0A004F005F8CAA004F002F8AFF29470EF
:1013B00003F0FEFFCCA0FFF74EFA0020A84908700A
:1013C0006420CE4948604FF4FA70A5494860800017
:1013D000AC4908811FBD2DE9F043C1B081460D46DF
:1013E00000264FF4807101A804F0C6F800240027FD
:1013F00024208DF8040043208DF805008DF80600A8
:1014000054208DF8070058208DF8080041208DF8F1
:1014100009002C208DF80A00914890F8A4008DF85E
:101420000B008F4890F8A5008DF80C008C4890F8C0
:10143000A6008DF80D008A4890F8A7008DF80E00E0
:10144000874890F8A8008DF80F00854890F8A9000B
:101450008DF81000824890F8AA008DF811002C2019
:101460008DF8120031208DF813002C208DF8140017
:1014700032208DF815002C208DF8160000BF07E0F3
:1014800019F8041004F1130001AA1154601C84B26D
:10149000AC42F5DB012704E001A8C05D4640781CA2
:1014A00087B205F11300B842F6DC2A2104F11300DB
:1014B00001AA11543011FFF723FA04F1140101AA13
:1014C000505406F00F00FFF71BFA04F1150101AAB2
:1014D00050540D2104F1160011540A21401C1154DE
:1014E000401C1FFA80F8414601A8FFF71EFF84A0A8
:1014F00003F05EFF002407E001A8015DAFF62C10A9
:1015000003F056FF601C84B24445F5DB7EA003F077
:101510004FFF41B0BDE8F08310B57848406800281F
:1015200008D17648007820B14FF47A70734948604A
:1015300001E1FDE009E100000D0A000000050020C6
:101540004244494349000000A3BA53494DBFA8D0C3
:10155000C5CFA20D0A0000004244464B49000000DE
:10156000A3BABBD8D6B4D0C5CFA20D0A00000000E4
:1015700042445A4441000000A3BACAB1BCE4D0C5F9
:10158000CFA20D0A0000000042444253490000006F
:10159000A3BAD0C5BAC5C7BFB6C80D0A00000000BF
:1015A0004244445752000000A3BAB6A8CEBBD0C5EF
:1015B000CFA20D0A0000000042445458520000001F
:1015C000A3BABDD3CAD5CEC4B1BED0C5CFA20D0A71
:1015D00000000000600000203C3C3C3C3C3C000023
:1015E00024000000B1EAD6BECEBBB4EDCEF30D0AA6
:1015F000000000000D0ABCC6CBE3D0A3D1E9D6B5EC
:10160000A3BA25780D0ABDD3CAD5D0A3D1E9D6B5E2
:10161000A3BA256325630D0A00000000D0A3D1E919
:10162000B3C9B9A60D0A0000D0A3D1E9CAA7B0DC9E
:101630000D0A00006C0002403D3D3D3D3D3D3D3DFD
:101640003D3D3D3D3DB1B1B6B7CDA8D0C5C4A3BF6A
:10165000E93D3D3D3D3D3D3D3D3D3D3D3D0D0A00AE
:101660004C040020CDA8D0C5C4BFB1EAB5D8D6B7C8
:10167000A3BA256325632563256325632563256355
:101680000D0A00002C0D00205254433A2032302520
:10169000642D25642D2564202025643A25643A258F
:1016A000640D0A003D3D3D3D3D3D3D3D3D3D3D3DE3
:1016B0003D3D3D3D3D3D3D3D3D3D3D3D3D3D3D3D5A
:1016C0003D3D3D3D3D3D3D3D3D0D0A0D0A0D0A00B0
:1016D0003E3E3E3E3E3E2443434943412C302C3067
:1016E000302A37420D0A00002443434943412C303D
:1016F0002C30302A37420D0A000000005000002034
:101700003E3E3E3E3E3E00000D0A2D2D2D2D2D2D40
:101710002D2D2D2D2D2D2D2D2D2D2D2D2D2D2D2DF9
:101720002D2D2D2D2D2D2D2D2D2D0D0A00000000E0
:1017300064202549486025A0FFF78DF828A003F014
:1017400037FEAFF6283003F033FE1F48C06800288C
:1017500028D12A484068002824D14FF4FA7027493C
:1017600048600846007820B101280DD0022817D122
:1017700010E023A0FFF76FF82AA003F019FEAFF6E0
:10178000643003F015FE0CE01C48017A0A30FFF7C4
:1017900022FE06E01948417A5730FFF71CFE00E0B0
:1017A00000BF00BF2948008968B940F6C410274926
:1017B000088127A0FFF74FF82AA003F0F9FDAFF644
:1017C000A43003F0F5FD10BD500000202443435227
:1017D0004D4F2C4253492C322C302A32360D0A0000
:1017E0003E3E3E3E3E3E244343524D4F2C425349E3
:1017F0002C322C302A32360D0A0000004C04002016
:101800002443434457412C303030303030302C5654
:101810002C312C4C2C2C302C2C2C302A36350D0A0B
:10182000000000003E3E3E3E3E3E244343445741BE
:101830002C303030303030302C562C312C4C2C2C7D
:10184000302C2C2C302A36350D0A00002C0D0020AF
:10185000244343524D4F2C5A44412C322C302A32CF
:10186000310D0A003E3E3E3E3E3E244343524D4F24
:101870002C5A44412C322C302A32310D0A000000FF
:10188000014601F00F020B1103EB830302EB43024D
:10189000D0B2704710B5014600200022642391FBAE
:1018A000F3F403FB1413DAB20A2392FBF3F31B07DE
:1018B000180E0A2392FBF3F403FB14230343D8B25C
:1018C00010BD10B5FE48006820F07060FC4908604B
:1018D0000846006840F0807008600A2001F060F857
:1018E0000020F84908600120F749C1F8980101F08B
:1018F00057F80120F34908600A2001F051F8002050
:10190000F149C1F898010A2001F04AF80020ED4998
:10191000086010BD10B5EA48006820F07060E84922
:1019200008600846006840F0807008600A2001F0F6
:1019300037F80020E3490860E349C1F89801012025
:1019400001F02EF80120DF4908600A2001F028F894
:101950000120DE49C1F8BC010A2001F021F8002075
:10196000D8490860012001F01BF80120D549086022
:10197000D749086010BD70B504462546D0480068B8
:1019800020F07060CE4908600846006840F0807022
:101990000860002620E00020CA490860042000F00A
:1019A000FFFF05F0800018B10120C949086002E07E
:1019B0000020C7490860042000F0F2FF0120C1495F
:1019C0000860042000F0ECFF0020C049C1F8BC0111
:1019D0006806050E701CC6B2082EDCDB0A2000F07B
:1019E000DFFF0120BA490860082000F0D9FF01207C
:1019F000B649C1F8BC01082000F0D2FF0020B1496F
:101A00000860022000F0CCFF70BD70B50024AC4827
:101A1000006820F07060AA4908600846006840F03D
:101A200000600860002519E00020A6490860042035
:101A300000F0B6FF0120A549C1F8BC016006040E04
:101A4000A3488038006808B144F00104042000F085
:101A5000A7FF00209B490860681CC5B2082DE3DB86
:101A600001209B490860082000F09AFF0120974957
:101A7000C1F8BC01082000F093FF002094490860E1
:101A8000022000F08DFF00209049C1F8BC012046E3
:101A900070BD70B50446FFF714FFA220FFF76BFF7F
:101AA0002046FFF768FFFFF70CFFA320FFF763FF57
:101AB000FFF7ABFF0546FFF72DFF0A2000F070FF90
:101AC0000120834908608149C1F8BC01284670BDE6
:101AD00070B505460C46FFF7F4FEA220FFF74BFF5A
:101AE0002846FFF748FF2046FFF745FFFFF712FFA4
:101AF0000A2000F055FF0120754908607349C1F8BC
:101B0000BC0170BD08B50121182001F097FC4FF40D
:101B10000040ADF8000010208DF8030001208DF882
:101B2000020069466B4801F0CDF94FF40041694865
:101B300001F075FA4020ADF800006946604801F0F8
:101B4000C1F940215E4801F06AFA8020ADF800003A
:101B500048208DF803006946594801F0B3F9802107
:101B6000574801F05CFA08BD70B504466078FFF78D
:101B700091FE054629460820FFF7AAFFA078FFF747
:101B800089FE054629460720FFF7A2FFE078FFF708
:101B900081FE054629460520FFF79AFF2079FFF7C9
:101BA00079FE054629460420FFF792FF6079FFF78A
:101BB00071FE054629460320FFF78AFFA079FFF74B
:101BC00069FE054629460220FFF782FF00210846EC
:101BD000FFF77EFF70BD7CB50446032500BF0820DB
:101BE000FFF757FF8DF800000720FFF752FF8DF831
:101BF00001000520FFF74DFF8DF802000420FFF7DC
:101C000048FF8DF803000320FFF743FF8DF8040021
:101C10000220FFF73EFF8DF805009DF8000000F060
:101C20007F008DF800009DF8010000F01F008DF886
:101C300001009DF8020000F03F008DF802009DF8C1
:101C4000030000F03F008DF803009DF8040000F051
:101C50007F008DF804009DF8050000F07F008DF8EE
:101C600005009DF80000FFF70BFE8DF800009DF8C1
:101C70000100FFF705FE8DF801009DF80200FFF757
:101C8000FFFD8DF802009DF80300FFF7F9FD8DF8C8
:101C900003009DF80400FFF7F3FD8DF804009DF8A4
:101CA0000500FFF7EDFD8DF805009DF800006428A4
:101CB00034DA9DF801000C2830DC9DF802000BE0BE
:101CC00000100140BC8121420000224200802142DC
:101CD00098012242000C01401F281FDC9DF80300E0
:101CE00018281BDA9DF804003C2817DA9DF8050037
:101CF0003C2813DA9DF8000060709DF80100A07088
:101D00009DF80200E0709DF8030020719DF804002A
:101D100060719DF80500A071002501E0681EC5B244
:101D200005B15CE77CBD10B500210846FFF7D0FE89
:101D3000FF210A20FFF7CCFEFF210B20FFF7C8FE92
:101D4000FF210C20FFF7C4FE10BD10B5FFF7DAFE2F
:101D5000FFF7E9FF7748FFF73EFF76484078112804
:101D60000BDC12207349487001208870C87008711C
:101D7000487188710846FFF7F7FE10BD01464FF421
:101D8000C87091FBF0F300FB131068B10A46C81746
:101D900001EB90708010A1EB800038B9642091FBBA
:101DA000F0F300FB131008B1012070470020FCE79E
:101DB00003B5BDF80000002834DDBDF8000042F294
:101DC0000F7188422EDCBDF8020000282ADDBDF824
:101DD00002000C2826DCBDF80400002822DDBDF836
:101DE000020002280ED1BDF80000FFF7C7FFBDF8C2
:101DF0000210491E504A32F811100844BDF8041070
:101E000088420DDCBDF8020002280BD0BDF804109A
:101E1000BDF80200401E484A32F81000814201DA43
:101E200001200CBD0020FCE72DE9FF4182B00546F2
:101E30001E46DDE90301CDE900013446DDE900017C
:101E4000FFF7B6FF00286CD0002C6ADD3B488442C7
:101E500067DA1EE0BDF8020003280DDBBDF80000C4
:101E6000401C80B2ADF80000BDF80000FFF786FF0F
:101E7000A4F26D110C1A0CE0BDF80000FFF77EFF14
:101E8000A4F26D110C1ABDF80000401C80B2ADF830
:101E90000000B4F5B77FDDDA3BE0BDF802000228B0
:101EA0000BD0BDF80200401E234931F81000BDF8E8
:101EB0000410401A00F101080FE0BDF80000FFF720
:101EC0005DFFBDF80210491E1B4A32F8111008448C
:101ED000BDF80410401A00F101082746A4EB0804DD
:101EE000002C16DBBDF80200401C80B2ADF80200E9
:101EF0000120ADF80400BDF802000C2808DD012027
:101F0000ADF80200BDF80000401C80B2ADF8000042
:101F10002746002CC1DCBDF80400384480B2ADF87F
:101F2000040000982860BDF80400A88006B0BDE851
:101F3000F08100002C0D00201A000020F6AE3700C2
:101F400008B50121102001F079FA4FF44040ADF8B6
:101F5000000003208DF8020010208DF80300694670
:101F6000FE4800F0AFFF4FF40050ADF800006946A6
:101F7000FA4800F0A7FF4FF40051F84801F051F87B
:101F80004FF40051F54801F04CF84FF48041F3480C
:101F900001F045F84FF40041F04801F040F801200D
:101FA00000F0EFFC08BD08B54FF40040ADF80000AC
:101FB00003208DF8020010208DF803006946E748E1
:101FC00000F080FF08BD08B54FF40040ADF80000F8
:101FD00048208DF803006946E04800F073FF08BD13
:101FE00010B5FFF7E0FF4FF40041DC4801F017F8AF
:101FF000052000F0D5FC4FF48041D84801F00FF8DF
:10200000052000F0CDFC4FF40041D44801F009F860
:10201000062000F0C5FC4FF48041D04801F001F8E3
:10202000052000F0BDFC10BD10B5FFF7BCFF4FF45C
:102030008041CA4800F0F5FF052000F0B1FC4FF4E4
:102040000041C64800F0EDFF052000F0A9FC4FF468
:102050008041C24800F0E3FF062000F0A1FC4FF4ED
:102060000041BE4800F0DBFF062000F099FC10BDE7
:1020700010B54FF48041B94800F0D3FFFFF793FF4C
:102080004FF40041B54800F0CCFF022000F088FC7E
:102090004FF48041B14800F0C2FF052000F080FC01
:1020A0004FF48041AD4800F0BCFF052000F078FC03
:1020B00010BD10B54FF48041A84800F0B2FFFFF703
:1020C00072FF4FF40041A54800F0A9FF022000F084
:1020D00067FC4FF48041A14800F0A1FF052000F00B
:1020E0005FFC4FF480419D4800F09BFF052000F00D
:1020F00057FC10BD10B50024FFF765FF4FF40041F9
:10210000964800F08CFF052000F04AFC4FF4804117
:10211000924800F084FF052000F042FC07E0601CBC
:10212000C4B2FA2C03DDFFF77FFF012010BD4FF48E
:1021300000418A4800F059FF0028F0D14FF4804157
:10214000864800F06EFF0020F0E770B504460025D9
:10215000FFF729FF4FF48041804800F062FF00BF85
:1021600025E004F08000002805DD4FF400417B48A5
:1021700000F055FF04E04FF40041784800F051FFB3
:10218000052000F00DFC6006040E4FF480417348FA
:1021900000F045FF052000F003FC4FF480416F483C
:1021A00000F03FFF052000F0FBFB681CC5B2082DC6
:1021B000D7DB70BD70B5054600260024FFF703FF8E
:1021C00000BF1BE04FF48041644800F02AFF032069
:1021D00000F0E6FB4FF48041604800F020FF60060D
:1021E000040E4FF400415D4800F0FFFE08B1601C92
:1021F000C4B2032000F0D4FB701CC6B2082EE1DB91
:1022000015B9FFF756FF01E0FFF732FF204670BD1A
:1022100010B5FFF795FE10BD70B50446002672B6E6
:10222000FFF7DEFEA020FFF790FFFFF763FF20120D
:10223000FFF78BFFFFF75EFF2546E11704EB116107
:102240000912A4EB0121C8B2FFF77FFFFFF752FF8D
:10225000FFF7C6FEA120FFF778FFFFF74BFF002036
:10226000FFF7A8FF0646FFF7DFFE62B6304670BDF7
:1022700070B50446002572B6FFF7B2FEA020FFF746
:1022800064FFFFF737FF2012FFF75FFFFFF732FF12
:102290002646E11704EB11610912A4EB0121C8B233
:1022A000FFF753FFFFF726FFFFF79AFEA120FFF786
:1022B0004CFFFFF71FFF0120FFF77CFF05464FF69D
:1022C000FF7000EA05250020FFF774FF0543FFF7C4
:1022D000ABFE62B6284670BD70B504460E4672B6B7
:1022E000FFF77EFEA020FFF730FFFFF703FF20126D
:1022F000FFF72BFFFFF7FEFE2546E11704EB116108
:102300000912A4EB0121C8B2FFF71FFFFFF7F2FE8D
:102310003046FFF71AFFFFF7EDFEFFF785FE62B6C6
:102320000A2000F02EFB70BD70B504460D4672B653
:10233000FFF756FEA020FFF708FFFFF7DBFE201295
:10234000FFF703FFFFF7D6FE2646E11704EB116106
:102350000912A4EB0121C8B202E000000010014004
:10236000FFF7F3FEFFF7C6FE2812FFF7EEFEFFF7BA
:10237000C1FEE8B2FFF7E9FEFFF7BCFEFFF754FE2F
:1023800062B60A2000F0FDFA70BD70B50546A8B22D
:10239000FFF742FF04462402691C88B2FFF73CFFA6
:1023A00004442402A91C88B2FFF736FF0444240227
:1023B000E91C88B2FFF730FF0444204670BD70B5B9
:1023C00004460D46290EA0B2FFF786FF611C88B2B5
:1023D000C5F30741FFF780FFA11C88B2C5F30721B1
:1023E000FFF77AFFE9B2E21C90B2FFF775FF70BD0C
:1023F0002DE9F04106460D46174600240AE0311942
:1024000088B2FFF709FF2855285D08B9BDE8F081BB
:10241000601CC4B2BC42F2DB00BFF7E72DE9F0411B
:1024200006460D46174600240AE0295D321990B28F
:10243000FFF752FF285D08B9BDE8F081601CC4B207
:10244000BC42F2DB00BFF7E770B505460C4600263C
:1024500008E02846FFF7E0FE2070641C681C85B287
:10246000701CC6B2082EF4DB70BD00002DE9F041EF
:1024700088B004460D4616461F46DDF83880012117
:10248000042000F0DBFF0121480600F0E4FF4FF4D8
:102490008050ADF81C0003208DF81E0018208DF828
:1024A0001F0007A9F94800F00DFD4FF40060ADF8DA
:1024B0001C0048208DF81F0007A9F44800F002FD19
:1024C00000208DF816008DF817008DF818000120F7
:1024D0008DF8190000208DF81A008DF81B008DF87A
:1024E00012808DF813408DF814608DF81550ADF8FA
:1024F000107004A9E64802F07AFA00208DF80A006C
:102500008DF80B0001208DF80C000020ADF80000C4
:10251000ADF80200ADF80400ADF80600ADF8080013
:1025200001208DF80D00684602F0EBFA002008B09B
:10253000BDE8F08110B586B00021D54802F048FD15
:10254000002871D001AA0021D14802F0BEFC0298F7
:10255000C0F30F244FF66C71601A8C427ED01CDCE5
:102560004FF6EE61A4EB01008C4278D00EDCA4F5AE
:102570007040A0F10400002872D0A0F69D600028F1
:1025800053D0012836D002286BD119E0012869D038
:10259000782868D07928F7D153E11B287DD008DC52
:1025A000152866D0162879D0192878D01A28EBD1AA
:1025B000D1E01E2874D01F2873D03B28E4D10CE151
:1025C0009DF80F10B348C1729DF8101001739DF86B
:1025D000111041739DF8121081739DF81310C1738F
:1025E0009DF8141001749DF8151041749DF8161093
:1025F000817460E19DF80F10A648C1749DF8101019
:1026000001759DF8111041759DF8121081759DF8A6
:102610001310C1759DF8141001769DF815104176C0
:102620009DF81610817646E146E19DF80F10994815
:10263000C1769DF8101001779DF8111041779DF833
:10264000121081779DF81310C1779DF8141080F84F
:1026500020109DF8151080F8211005E01CE15AE0CB
:1026600035E027E13DE0DAE09DF8161080F8221011
:1026700021E19DF80F10874880F823109DF8101075
:1026800080F824109DF8111080F825109DF8121084
:1026900080F826109DF8131004E07EE011E044E07D
:1026A000E9E08CE080F827109DF8141080F82810DD
:1026B0009DF8151080F829109DF8161080F82A1042
:1026C000F9E09DF80F10734880F82B10F3E09DF8A7
:1026D0001210704880F82C109DF8131080F82D10FF
:1026E000E9E09DF80F106B4880F830109DF810104D
:1026F00080F831109DF8121080F832109DF81310F8
:1027000080F833109DF8121080F836109DF81310E1
:1027100080F83710CFE09DF80F105E4880F8351034
:102720009DF8121080F83410C5E09DF80F1059483C
:1027300080F82E109DF8101080F82F109DF81110C1
:1027400080F840109DF8121080F841109DF8131089
:1027500080F84210AFE09DF80F104E4880F83E1010
:102760009DF8101080F83F109DF8111080F8381077
:102770009DF8121080F839109DF8131080F83A1067
:102780009DF8141080F83B109DF8151080F83C104F
:102790009DF8161080F83D108DE09DF80F103D4813
:1027A00080F843109DF8101080F844109DF8111027
:1027B00080F845109DF8121080F846107BE09DF8D7
:1027C0000F10344880F847109DF8101080F848101A
:1027D0009DF8111080F849106DE09DF80F102D48FC
:1027E00080F858109DF8101080F859109DF81110BD
:1027F00080F85A109DF8121080F85B109DF81310A5
:1028000080F85C109DF8141080F85D109DF815108C
:1028100080F85E109DF8161080F85F104BE09DF870
:102820000F101C4880F860109DF8101080F861109F
:102830009DF8111080F862109DF8121080F8631056
:1028400039E09DF80F10134880F864109DF81010BF
:1028500080F865109DF8111080F866109DF8121030
:1028600080F867109DF8131080F868109DF8141018
:1028700080F869101FE09DF80F10064880F86A1074
:102880009DF8101080F86B1015E000000008014062
:10289000006400404C0400209DF80F10264880F88A
:1028A0006D109DF8101080F86C109DF8111080F8D4
:1028B0006E1000E000BF00BF25201F498872232052
:1028C00081F857001D4801781B4880F84A101B48C2
:1028D0004178194880F84B1018488178164880F8DC
:1028E0004C101648C178144880F84D1013480179EF
:1028F000114880F84E10124801780F4880F84F10A8
:102900000F4841780C4880F850100D4881780A48EB
:1029100080F851100A48C178074880F852100848DA
:102920000179054880F853104A200349087218209D
:10293000487206B010BD00004C040020F50C0020C9
:10294000EB0C002010B500F00BFC4FF4803000F0D1
:1029500027FC00BF00F063FC0028FBD04FF4E0111F
:102960004FF4803000F084FC012000F08DFC00BFAB
:10297000392000F038FC0028FAD0022000F087FC53
:1029800010BD07E042F2107100BF0A00A1F101037F
:1029900099B2FAD10200A0F1010398B2F2D17047C6
:1029A00006E00A2100BF0A00A1F1010399B2FAD1A1
:1029B0000200A0F10100F4D1704700007FB5054688
:1029C0000C460121022000F046FDADF80850ADF89C
:1029D00004400020ADF80A00ADF8060001A95A48ED
:1029E00001F092F901221146574801F004FD1D2023
:1029F0008DF8000002208DF8010003208DF8020000
:102A000001208DF80300684600F093F901214E483B
:102A100001F0D6FC7FBD70B505460C4645F2555019
:102A200001F0ACFF284601F0ACFF204601F0ACFFFE
:102A300001F0ADFF01F0B0FF70BD30BF704772B65E
:102A4000704762B6704710B50A20FFF7E5FB0446F1
:102A5000A12C0DD008223DA11420FFF7DFFC082295
:102A60003AA12820FFF7DAFCA1210A20FFF734FC65
:102A7000072238491420FFF7BBFC10BD10B5A2B0E7
:102A80000020209021903448008800F40040002865
:102A900057D03248007824281CD12F480088C0F332
:102AA0000D012E48FEF741FC00BF2D48008800F0C4
:102AB00040000028F9D00D202949091D088000BFD9
:102AC0002748008800F040000028F9D00A20244957
:102AD000091D08802148007823282FD1002406E012
:102AE0001E49601C085C20A90855601CC4B2042C57
:102AF000F6DB1CA120A802F067FDF8B91BA002F0CC
:102B000057FC00240BE01549A01D085C0DF80400DB
:102B10001DF804101AA002F04BFC601CC4B20E4851
:102B20000088C0F30D00801FA042ECDC15A002F06D
:102B30003FFC082269461420FFF770FC002006497C
:102B4000088022B010BD0000000400403033313155
:102B500038383600F004002038000020360D002000
:102B6000004400405458494400000000B8FCB8C478
:102B7000B1B1B6B7CDA8D0C56964CEAAA3BA0000DA
:102B8000256300000D0A0000014600BF704700BF2A
:102B9000514A128802F04002002AF9D0C2B24E4BCC
:102BA0001B1D1A80704710B586B004460121C80469
:102BB00000F051FC0121102000F040FC4FF4806037
:102BC000ADF8140002208DF8160018208DF81700BB
:102BD00005A9424800F076F94FF40060ADF8140002
:102BE00004208DF8170005A93C4800F06BF94FF45C
:102BF0008050ADF8140010208DF8170005A9374853
:102C000000F060F901940020ADF80800ADF80A006A
:102C1000ADF80C00ADF810000C20ADF80E0001A9C5
:102C20002D4800F0B2FC34208DF8000003208DF810
:102C300001008DF8020001208DF80300684600F0C5
:102C400078F8012240F22551234800F036FD012199
:102C5000214800F026FD06B010BD10B540F2255108
:102C60001D4800F00FFE10B31B4800F08BFDC4B2EE
:102C70001B48008800F40040C8B91948008800F4D7
:102C8000804060B10A2C03D000201549088021E063
:102C90001348008840F40040114908801AE00D2CC8
:102CA00006D10F48008840F480400D49088011E0AB
:102CB0000B480088C0F30D000A490C5408480088EE
:102CC000401C0749088008460088B0F5806F01DB8A
:102CD0000020088010BD0000004C004000100140A2
:102CE00038000020360D0020094880470948004779
:102CF000FEE7FEE7FEE7FEE7FEE7FEE7FEE7FEE7AC
:102D0000FEE7FEE704480549054A064B7047000008
:102D1000DB040008310100089811002098170020FA
:102D2000981300209813002031490143314A116063
:102D3000704770B5002100230F22C47804B32D4CD6
:102D4000246804F4E064C4F5E064210AC1F10403DA
:102D5000CA40447804FA03F18478144021430901FD
:102D6000254C0678A155047804F01F050124AC40D9
:102D700005786D11AD0005F1E025C5F8004109E0C9
:102D8000047804F01F050124AC401C4D0678761130
:102D900045F8264070BD1A4A0A400243154B1B1FD6
:102DA0001A60704739B1134A121D12680243114B61
:102DB0001B1D1A6006E00F4A121D126882430D4B5C
:102DC0001B1D1A607047042808D14FF0E0210969E3
:102DD00041F004014FF0E022116107E04FF0E021E3
:102DE000096921F004014FF0E022116170470000F1
:102DF0000000FA050CED00E000E400E080E100E0F6
:102E000080FFFF1F10B50446CC48844208D1012141
:102E1000042000F02DFB0021042000F029FB46E0F7
:102E2000C748844208D10121082000F021FB00217D
:102E3000082000F01DFB3AE0C248844208D101217D
:102E4000102000F015FB0021102000F011FB2EE0F7
:102E5000BD48844208D10121202000F009FB002157
:102E6000202000F005FB22E0B848844208D101216F
:102E7000402000F0FDFA0021402000F0F9FA16E0B1
:102E8000B348844208D10121802000F0F1FA0021EA
:102E9000802000F0EDFA0AE0AE48844207D101211B
:102EA000801500F0E5FA0021A01500F0E1FA10BD50
:102EB00010B50121084600F0DBFA0021012000F0E6
:102EC000D7FA10BD2DE9F04102460025002600206A
:102ED00000230024002791F803C00CF00F0591F89F
:102EE00003C00CF0100CBCF1000F03D091F802C02D
:102EF0004CEA050591F800C0BCF1000F31D0146810
:102F000000202BE04FF0010C0CFA00F3B1F800C0E8
:102F10000CEA03069E4220D183004FF00F0C0CFAFE
:102F200003F7BC4305FA03FC4CEA040491F803C020
:102F3000BCF1280F06D14FF0010C0CFA00FCC2F8CE
:102F400014C00AE091F803C0BCF1480F05D14FF05E
:102F5000010C0CFA00FCC2F810C0401C0828D1D3A8
:102F60001460B1F800C0BCF1FF0F34DD54680020DC
:102F70002EE000F1080C4FF0010808FA0CF3B1F84C
:102F800000C00CEA03069E4221D183004FF00F0CD3
:102F90000CFA03F7BC4305FA03FC4CEA040491F86D
:102FA00003C0BCF1280F05D100F1080C08FA0CF899
:102FB000C2F8148091F803C0BCF1480F07D100F1AA
:102FC000080C4FF0010808FA0CF8C2F81080401CF9
:102FD0000828CED35460BDE8F0814FF6FF71018020
:102FE000022181700421C17070470246002093685D
:102FF0000B400BB1012000E00020704701468868BB
:1030000080B2704702460020D3680B400BB101200C
:1030100000E0002070470146C86880B27047016137
:103020007047416170470AB1016100E0416170473A
:10303000C16070474FF480320A43826181618261CE
:1030400082698269704702460020434B18684FF638
:103050008073184040EA021008433F4B18607047E5
:103060003E49C8617047F0B50A460023002400219C
:10307000002500F00046B6F1004F02D1364EF1694E
:1030800001E0354E7168C0F3034583B200F4401689
:10309000B6F5401F08D121F070612F4E766826F0FA
:1030A00070662D4F7E6012E000F48016B6F5801F2A
:1030B00006D1032606FA05F4A14341F0706106E04B
:1030C000460D360103FA06F6B14341F0706122B1B4
:1030D000460D360103FA06F6314300F00046B6F11C
:1030E000004F02D11C4EF16101E01B4E7160F0BD3A
:1030F00030B500228B071C0F0F2303FA04F2164B86
:1031000008338C1053F824309343134C08348D103B
:1031100044F8253023468C1053F824308C07240FB4
:1031200000FA04F423430C4C08348D1044F8253085
:1031300030BD0A49DC3108607047000000080140DA
:10314000000C014000100140001401400018014033
:10315000001C01400020014000000140000020420E
:10316000DF48006840F00100DD490860084640681B
:10317000DC490840DA49486008460068DA490840F6
:10318000D74908600846006820F480200860084697
:10319000406820F4FE0048604FF41F0088607047CC
:1031A000CF49096821F48031CD4A11601146096880
:1031B00021F480211160B0F5803F03D0B0F5802F5D
:1031C0000ED106E0C649096841F48031C44A116055
:1031D00007E0C349096841F4A021C14A116000E039
:1031E00000BF00BF704710B5014600220023002039
:1031F0004A11012A02D1BA4C236806E0022A02D100
:10320000B74C236A01E0B64C636A01F01F02012447
:1032100094401C400CB1012000E0002010BD38B5E6
:10322000002000900024002500BF3120FFF7DBFFC5
:1032300005460098401C00900098B0F5A06F01D0A2
:10324000002DF2D03120FFF7CEFF08B1012400E0BD
:103250000024204638BD01460020A14A106820F015
:10326000F80040EAC10010607047A049086070474C
:10327000024600209A4B586820F47C1042EA010371
:103280001843974B58607047984908667047014645
:103290000020934A506820F00300084350607047B4
:1032A0008F48406800F00C007047014600208C4AAF
:1032B000506820F0F000084350607047014600203D
:1032C000874A506820F4E060084350607047014628
:1032D0000020834A506820F4605040EAC1005060EA
:1032E000704729B17E4A527A02437D4B5A7204E0FC
:1032F0007B4A527A82437A4B5A7270477B49D83163
:103300000860704701460020754A506820F440402C
:103310000843506070470021714A20321170704A92
:1033200082F82010012802D004280AD104E00121EB
:103330006B4A2032117005E00521694A2032117074
:1033400000E000BF00BF70476949086070476449EA
:10335000096A0143624A116270476549443908604D
:10336000704730B500210022002400235C4D6D68B9
:1033700005F00C0121B1042905D0082923D105E06D
:103380005C4D056022E05B4D05601FE0544D6D68AB
:1033900005F47012524D6D6805F48034022505EB7A
:1033A00092421CB9544D554305600BE04C4D6D687D
:1033B00005F400351DB1504D5543056002E04D4DFB
:1033C0005543056002E04B4D056000BF00BF444D12
:1033D0006D6805F0F0010909484D6B5C0568DD403A
:1033E00045603F4D6D6805F4E061090A434D6B5C33
:1033F0004568DD4085603A4D6D6805F46051C90A45
:103400003E4D6B5C4568DD40C560354D6D6805F42B
:103410004041890B3A4D6B5CC568B5FBF3F505611E
:1034200030BD29B12E4A526902432D4B5A6104E046
:103430002B4A526982432A4B5A61704729B1284A64
:1034400092690243264B9A6104E0254A92698243BD
:10345000234B9A61704729B1214AD2690243204B1C
:10346000DA6104E01E4AD26982431D4BDA6170477B
:1034700029B11B4AD2680243194BDA6004E0184AAA
:10348000D2688243164BDA60704729B1144A126938
:103490000243134B1A6104E0114A12698243104B34
:1034A0001A61704712494039086070470F49C86473
:1034B00070470B49C87170470948406A40F08070F6
:1034C00007494862704701460020054A92680A4051
:1034D0000AB1012000E0002070470149887270475E
:1034E000001002400000FFF8FFFFF6FE000042421D
:1034F0008004424200127A0000093D003A00002098
:103500004A00002010B50446FB48844209D101213D
:103510008803FFF7ADFF00214FF48040FFF7A8FFBD
:1035200032E0F648844209D101214804FFF7ADFF9B
:1035300000214FF40030FFF7A8FF25E0F048844257
:1035400009D101218804FFF7A0FF00214FF480205A
:10355000FFF79BFF18E0EB48844209D10121C80422
:10356000FFF793FF00214FF40020FFF78EFF0BE0E1
:10357000E548844208D101210805FFF786FF0021B4
:103580004FF48010FFF781FF10BD2DE9F04786B0A2
:1035900005460E460024A24600BFA1460027B0897A
:1035A00000B100BF2F462C8A4CF6FF700440F08813
:1035B00004432C82AC894EF6F3100440B088318964
:1035C0000843718908430443AC81AC8A4FF6FF403D
:1035D0000440B0890443AC8201A8FFF7C2FEC6488C
:1035E000874202D1DDF810A001E0DDF80CA0A88927
:1035F00000F4004040B10AEBCA0000EB0A10316849
:103600004900B0FBF1F807E00AEBCA0000EB0A1032
:1036100031688900B0FBF1F86420B8FBF0F00401D8
:103620002009642101FB1089A88900F4004040B101
:10363000322000EBC900B0FBF1F000F007000443BA
:1036400008E0322000EB09106421B0FBF1F000F03B
:103650000F0004432C8106B0BDE8F0874FF41651EB
:10366000016000218180C18001810C214181002104
:103670008181704710B502460020108A4FF2FF0387
:1036800018400B884C8823438C882343CC882343E1
:103690001843108210BD0021018041808180C180CB
:1036A000704721B1828942F40052828104E082890C
:1036B0004DF6FF731A4082817047F0B5034600242F
:1036C00000260025002040F66A17B94200D100BF4D
:1036D0001846C1F3421401F01F06012707FA06F548
:1036E000012C01D10C3004E0022C01D1103000E09B
:1036F00014301AB107682F43076002E00768AF4330
:103700000760F0BD1AB1838A0B43838202E0838A8B
:103710008B4383827047028A4FF6F0731A4002820D
:10372000028A0A430282704782894FF2FF731A406D
:10373000828182890A438281704721B1828942F065
:103740000202828104E082894FF6FD731A40828171
:103750007047028A4FF6DF731A400282028A0A43D8
:103760000282704721B1028A42F48042028204E060
:10377000028A4BF6FF731A4002827047C1F30802B7
:103780008280704701468888C0F3080070478189AD
:1037900041F0010181817047028BD2B20283028B1A
:1037A00042EA012202837047028B02F47F420283C5
:1037B000028B0A430283704721B1828A42F02002C1
:1037C000828204E0828A4FF6DF731A408282704759
:1037D00021B1828A42F01002828204E0828A4FF68E
:1037E000EF731A408282704721B1828A42F0080248
:1037F000828204E0828A4FF6F7731A408282704711
:1038000021B1828942F40042828103E08289C2F3BD
:103810000E028281704721B1828A42F40062828264
:1038200004E0828A4FF2FF731A4082827047828AD4
:103830004FF6FB731A408282828A0A438282704763
:1038400021B1828A42F00202828204E0828A4FF62B
:10385000FD731A408282704702460020B1F5007F56
:1038600000D100BF13880B400BB1012000E0002005
:10387000704701F40072B2F5007F00D100BFCA4367
:103880000280704770B50246002400230025002006
:1038900040F66A16B14200D100BFC1F3421501F0F3
:1038A0001F03012606FA03F3012D02D19689334046
:1038B00006E0022D02D1168A334001E0968A334099
:1038C0000C12012606FA04F41688344013B10CB128
:1038D000012000E0002070BD10B50022002340F65A
:1038E0006A14A14200D100BF0A1201249440A3B27D
:1038F000DC43048010BD000000380140004400405B
:1039000000480040004C00400050004001684FF665
:10391000FE72114001600021016041608160C16060
:103920008D49884208D18C490839496841F00F0116
:10393000894A083A51608AE087491431884208D19F
:1039400085490839496841F0F001834A083A5160D5
:103950007DE081492831884208D17F49083949688A
:1039600041F470617C4A083A516070E07A493C3118
:10397000884208D178490839496841F47041764A4B
:10398000083A516063E074495031884208D1724965
:103990000839496841F470216F4A083A516056E08D
:1039A0006D496431884208D16B490839496841F44E
:1039B0007001694A083A516049E0674978318842A4
:1039C00008D165490839496841F07061624A083A8E
:1039D00051603CE06149884206D1011F096841F00D
:1039E0000F01021F116032E05C491431884208D196
:1039F0005A49091F096841F0F001584A121F116025
:103A000025E056492831884208D15449091F0968E0
:103A100041F47061514A121F116018E04F493C3166
:103A2000884208D14D49091F096841F470414B4A49
:103A3000121F11600BE049495031884207D14749B4
:103A4000091F096841F47021444A121F1160704730
:103A500010B50022026847F6F0739A430C6A8B682F
:103A600023430C6923434C6923438C692343CC696A
:103A700023434C6A23438C6A23431A430260CB6876
:103A800043600B6883604B68C36010BD0021016018
:103A900041608160C160016141618161C161016218
:103AA00041628162704721B1026842F00102026006
:103AB00004E002684FF6FE731A40026070471AB1C4
:103AC00003680B43036002E003688B4303607047A5
:103AD000416070470146486880B270470146002047
:103AE000002201F080531BB11C4B083B1A6802E016
:103AF000194B083B1A6802EA01030BB1012000E0F0
:103B00000020704700F0805119B11449091F086066
:103B100002E0114908394860704701460020002240
:103B200001F080531BB10D4B083B1A6802E00A4BB1
:103B3000083B1A6802EA01030BB1012000E00020F3
:103B4000704700F0805119B10449091F086002E074
:103B500001490839486070470800024008040240E3
:103B600010B50446FE48844208D10121C014FFF775
:103B70007FFC0021E014FFF77BFCC4E0B4F1804F30
:103B800008D101210846FFF780FC00210120FFF742
:103B90007CFCB8E0F348844208D101210220FFF701
:103BA00074FC00210220FFF770FCACE0EE48844278
:103BB00008D101210420FFF768FC00210420FFF751
:103BC00064FCA0E0E948844208D101210820FFF705
:103BD0005CFC00210820FFF758FC94E0E448844294
:103BE00008D101211020FFF750FC00211020FFF721
:103BF0004CFC88E0DF48844208D101212020FFF7F7
:103C000044FC00212020FFF740FC7CE0DA4884429D
:103C100008D101214014FFF72BFC00216014FFF7AD
:103C200027FC70E0D548844209D10121C804FFF780
:103C30001FFC00214FF40020FFF71AFC63E0D0487E
:103C4000844209D101210805FFF712FC00214FF43D
:103C50008010FFF70DFC56E0CA48844209D10121CB
:103C60004805FFF705FC00214FF40010FFF700FCAA
:103C700049E0C548844208D101214020FFF705FCF6
:103C800000214020FFF701FC3DE0C048844208D1FC
:103C900001218020FFF7F9FB00218020FFF7F5FBD1
:103CA00031E0BB48844208D101218015FFF7EDFBCC
:103CB0000021A015FFF7E9FB25E0B648844209D1B1
:103CC00001210804FFF7D4FB00214FF48030FFF7F7
:103CD000CFFB18E0B048844209D101214804FFF726
:103CE000C7FB00214FF40030FFF7C2FB0BE0AB48ED
:103CF000844208D101218804FFF7BAFB00214FF468
:103D00008020FFF7B5FB10BD00220288944B98423B
:103D10000ED0994B98420BD0B0F1804F08D0914B08
:103D2000984205D0904B984202D0904B984204D1D3
:103D30004FF68F731A404B881A438D4B984207D029
:103D40008C4B984204D04FF6FF431A40CB881A435D
:103D500002808B8883850B880385814B98420BD02A
:103D6000854B984208D08B4B984205D08A4B98429D
:103D700002D08A4B984201D10B7A038601238382B9
:103D8000704770B5002400220023058C4FF6FE76A4
:103D900035400584028C8388048B4FF68F752C4048
:103DA000B51E2C400D882C43751E2A400D892A43D0
:103DB0004D882A436A4DA8420BD06F4DA84208D0C7
:103DC000744DA84205D0744DA84202D0734DA8424C
:103DD00013D14FF6F7752A404D892A434FF6FB75EC
:103DE0002A408D882A434FF6FF652B404FF6FF553A
:103DF0002B408D892B43CD892B4383800483CD8831
:103E00008586028470BD70B5002400220023058CD5
:103E10004FF6EF7635400584028C8388048B48F694
:103E2000FF752C404FF6FF452C400D884FF6FF766E
:103E300006EA05252C434FF6DF752A400D8906EA70
:103E400005152A434D8806EA05152A43444DA84224
:103E500002D0494DA8421DD14FF67F752A404D89A9
:103E60004FF6FF7606EA05152A434FF6BF752A403E
:103E70008D8806EA05152A434FF6FF352B404FF291
:103E8000FF752B408D8906EA85052B43CD8906EA0F
:103E900085052B4383800483CD880587028470BD0C
:103EA00070B5002400220023058C4FF6FF663540D4
:103EB0000584028C8388848B4FF68F752C404FF6D7
:103EC000FC752C400D882C434FF6FF552A400D8978
:103ED0004FF6FF7606EA05252A434D8806EA0525B2
:103EE0002A431F4DA84202D0234DA8421DD14FF2B4
:103EF000FF752A404D894FF6FF7606EA05252A43CD
:103F00004FF6FF352A408D8806EA05252A434EF6EE
:103F1000FF752B404DF6FF752B408D8906EA051580
:103F20002B43CD8906EA05152B4383808483CD88F6
:103F30008587028470BD70B5002200230024058CA3
:103F40004EF6FF7635400584038C8488828B48F6D4
:103F5000FF752A404FF6FF452A400D8820E00000FB
:103F6000002C01400004004000080040000C00400C
:103F7000001000400014004000340140004C01409B
:103F8000005001400054014000180040001C004057
:103F90000020004000400140004401400048014032
:103FA0004FF6FF7606EA05252A434DF6FF752B40AE
:103FB0000D8906EA05352B434D8806EA05352B4366
:103FC000FA4DA84202D0FA4DA84208D14BF6FF752F
:103FD0002C408D894FF6FF7606EA85152C438480A8
:103FE0008283CD88A0F84050038470BD828B4FF24D
:103FF000FF331A408283828B4FF6FF7303EA01235B
:104000001A4382837047F0B50C4615460022002102
:104010000026078C4EF6FF7C07EA0C070784828B8C
:10402000018C4FF6FF7707EA043640F6FF473A4027
:104030004FF6FF7707EA05273A434FF6FF7707EA7F
:1040400003373A43D94FB8420ED0D94FB8420BD0BC
:10405000B0F1804F08D0D74FB84205D0D64FB84204
:1040600002D0D64FB84206D14DF6FF77394046F41C
:104070008057394305E047F6FF57394044F48057ED
:10408000394382830184F0BD828B4FF6F3731A406B
:104090008283828B0A4382837047F0B50C461546B3
:1040A000002200210026078C4FF6FF6C07EA0C0760
:1040B0000784828B018C4FF6FF7707EA04264FF6C0
:1040C0000C773A404FF6FF7707EA03172F433A433E
:1040D000B64FB8420ED0B64FB8420BD0B0F1804FB9
:1040E00008D0B44FB84205D0B34FB84202D0B34F56
:1040F000B84206D14FF6FF57394046F4807739432E
:1041000005E04FF2FF57394044F48077394382830A
:104110000184F0BD028B4FF2FF331A400283028B01
:104120004FF6FF7303EA01231A4302837047F0B589
:104130000C461546002200210026078C4FF6EF7C26
:1041400007EA0C070784028B018C4FF6FF7707EA1A
:10415000041640F6FF473A404FF6FF7707EA033769
:104160003A434FF6FF7707EA05273A438F4FB842A5
:104170000ED08F4FB8420BD0B0F1804F08D08D4F8A
:10418000B84205D08C4FB84202D08C4FB84206D10D
:104190004FF6DF77394046F01007394305E04FF618
:1041A0005F77394044F01007394302830184F0BD42
:1041B000028B4FF6F3731A400283028B0A43028389
:1041C0007047F0B50C46154600220021068C4FF6CC
:1041D000FE773E400684028B018C4FF60C7632400F
:1041E0007E1C06EA03162E433243704EB0420ED0B8
:1041F0006F4EB0420BD0B0F1804F08D06D4EB04240
:1042000005D06D4EB04202D06C4EB04206D14FF692
:10421000FD76314044F00106314305E04FF6F57676
:10422000314044F00106314302830184F0BD70B592
:1042300005460C465D4885420ED05D4885420BD050
:10424000B5F1804F08D05B48854205D05A48854279
:1042500002D05A48854200D100E000BF208850B902
:104260002389A28861882846FFF7ABFFE1882846AA
:10427000FFF79EFF25E0208804280AD12389A28821
:1042800061882846FFF753FFE1882846FFF742FF81
:1042900017E0208808280AD12389A2886188284647
:1042A000FFF7FBFEE1882846FFF7EEFE09E02389D1
:1042B000A28861882846FFF7A6FEE1882846FFF716
:1042C00095FE70BD2DE9F04105460C4600260127FC
:1042D000608808B9022600E00026A088012801D1E4
:1042E000022700E001272088A0B92389A2886188DD
:1042F0002846FFF766FFE1882846FFF759FF238924
:104300003A4631462846FFF712FFE1882846FFF774
:1043100001FF13E02389A28861882846FFF707FF81
:10432000E1882846FFF7F6FE23893A4631462846BB
:10433000FFF747FFE1882846FFF73AFFBDE8F08125
:104340000A884B881A438B881A43CB881A430B89F7
:104350001A434B891A438B891A43A0F844207047AB
:104360004FF6FF71818000210180C1804180017280
:1043700070470021018041808180C180018141819D
:104380008181C181704700210180418001218180AC
:104390000021C1800181704700210180418081801E
:1043A000C18001814181818170470000002C014062
:1043B000003401400004004000080040000C0040B0
:1043C00021B1028842F00102028004E002884FF627
:1043D000FE731A400280704731B1B0F8442042F4B5
:1043E0000042A0F8442005E0B0F84420C2F30E02D9
:1043F000A0F8442070471AB183890B43838102E0FF
:1044000083898B43838170478182704741EA02032D
:10441000A0F8483070471AB183890B43838102E0CA
:1044200083898B438381704701894FF6F87211406D
:10443000018170470A46002101894FF68F731940A8
:1044400011430181704730B504460D462946204688
:10445000FFF7F0FF208940F00700208130BD2DE9F3
:10446000F04104460D4616461F46602D06D13B46D8
:10447000012231462046FFF75AFE05E03B46012265
:1044800031462046FFF79DFE29462046FFF7D2FF22
:10449000208940F007002081BDE8F08130B50C464E
:1044A00000210189C9B24FF6FF7505EA03251543BE
:1044B00025432943018130BD2DE9F04105460E46D3
:1044C00017469846002443463A4631462846FFF7A9
:1044D000E5FF2C894FF6F870044044F007044FF6CE
:1044E0008F70044044F070042C81BDE8F081F0B579
:1044F00004460D4616461F463B4632462946204690
:10450000FFF7CCFF208940F480402081F0BD018579
:10451000828270470A46002101884FF68F73194046
:10452000114301807047F0B50C4615461E46002128
:10453000002200230189028B038C4FF6F877394063
:1045400021434FF6FC473A4040F201173A434FF6F9
:10455000DD773B404FF6FF7707EA06172F433B43D3
:10456000018102830384F0BD0A460021018B4FF6CE
:104570008F7319401143018370470A460021018B54
:1045800048F6FF7319404FF6FF7303EA02231943FD
:10459000018370470A460021818B4FF68F731940C3
:1045A0001143818370470A460021818B48F6FF73CF
:1045B00019404FF6FF7303EA0223194381837047C2
:1045C00021B1028842F08002028004E002884FF6A6
:1045D0007F731A400280704721B1828842F0040242
:1045E000828004E082884FF6FB731A408280704715
:1045F00021B1828842F00802828004E082884FF66E
:10460000F7731A408280704721B1828842F001021C
:10461000828004E082884FF6FE731A4082807047E1
:104620000A460021018B4FF6F773194011430183AD
:1046300070470A460021018B4FF2FF7319404FF675
:10464000FF7303EA02231943018370470A460021DE
:10465000818B4FF6F77319401143818370470A46E7
:104660000021818B4FF2FF7319404FF6FF7303EA6D
:1046700002231943818370470A460021018B4FF6BC
:10468000FB7319401143018370470A460021018BD7
:104690004FF6FF3319404FF6FF7303EA0223194325
:1046A000018370470A460021818B4FF6FB73194046
:1046B0001143818370470A460021818B4FF6FF33F7
:1046C00019404FF6FF7303EA0223194381837047B1
:1046D0000A460021018B4FF67F7319401143018375
:1046E00070470A460021018BC1F30E014FF6FF739C
:1046F00003EA02231943018370470A460021818B94
:104700004FF67F7319401143818370470A46002199
:10471000818BC1F30E014FF6FF7303EA02231943A5
:10472000818370470A460021018C4FF6FD731940C2
:104730001143018470470A460021018C4FF6F7733C
:1047400019401143018470470A460021018C4FF63D
:10475000DF7319404FF6FF7303EA02131943018414
:1047600070470A460021018C4FF67F7319404FF6BF
:10477000FF7303EA02131943018470470A460021BC
:10478000018C4FF6FF5319404FF6FF7303EA0223E3
:104790001943018470470A460021018C4FF2FF73D0
:1047A00019404FF6FF7303EA02231943018470474F
:1047B0000A460021018C4DF6FF7319404FF6FF7336
:1047C00003EA023319430184704730B50023012402
:1047D0008C40A3B2048C9C430484048C02FA01F53F
:1047E000ADB22C43048430BD30B5002304248C408A
:1047F000A3B2048C9C430484048C02FA01F5ADB28C
:104800002C43048430BD70B50346002000241846B4
:10481000183001258D40ACB21D8CA5431D8409B113
:10482000082909D100EB6100056825F070050560D5
:104830000568154305600EE00D1FC5F34E052844BD
:10484000056825F4E045056005684FF6FF7606EA41
:1048500002263543056070BD21B1028842F0020294
:10486000028004E002884FF6FD731A400280704710
:1048700021B1028842F00402028004E002884FF66F
:10488000FB731A400280704721B1828842F0800297
:10489000828004E082884FF67F731A4082807047DE
:1048A00002884FF6F7731A40028002880A4302809A
:1048B000704782884FF68F731A40828082880A433D
:1048C0008280704702894FF6F8731A40028102898C
:1048D0000A430281704702894FF67F731A400281B2
:1048E00002890A430281704781847047818570473D
:1048F000818670470187704781877047A0F8401014
:10490000704702884FF6FF431A40028002880A432C
:10491000028070470146888E70470146088F7047B5
:104920000146888F70470146B1F840007047014644
:10493000888C70470146088D704702460020138A14
:104940000B400BB1012000E000207047CA430282F7
:10495000704730B50246002000230024158A05EA7E
:104960000103958905EA010413B10CB1012000E0AF
:10497000002030BDCA430282704700000E49086023
:1049800070470D49486070470B49886070474AF688
:10499000AA200949086070474CF6CC4006490860D7
:1049A000704701460020044AD2680A400AB101203B
:1049B00000E00020704700000030004010B50446C1
:1049C000FE48844209D101214806FEF75EFD002120
:1049D0004FF00070FEF759FD08E001218806FEF750
:1049E00054FD00214FF08060FEF74FFD10BD30B543
:1049F000024600200023146824F0020414601468A6
:104A000044F00104146000E05B1C546804F00104ED
:104A10001CB94FF6FF74A342F6D1546804F00104A8
:104A20000CB900206CE08C79012C04D1146844F09E
:104A30008004146003E0146824F080041460CC79CE
:104A4000012C04D1146844F04004146003E014689D
:104A500024F0400414600C7A012C04D1146844F052
:104A60002004146003E0146824F0200414604C7ADD
:104A7000012C04D1146844F01004146003E014689D
:104A800024F0100414608C7A012C04D1146844F0D2
:104A90000804146003E0146824F008041460CC7A5D
:104AA000012C04D1146844F00404146003E0146879
:104AB00024F0040414608C78A407CD7844EA0564DB
:104AC0000D7944EA05444D7944EA05540D886D1E7C
:104AD0002C43D461146824F001041460002300E026
:104AE0005B1C546804F001041CB14FF6FF74A34230
:104AF000F6D1546804F001040CB1002000E001205C
:104B000030BD10B50021837A012202FA03F1AC4ACC
:104B1000126842F00102AA4B1A60A94A1C321268BC
:104B20008A43A74B1C331A60027BCAB9A44A0C32D1
:104B300012688A43A24B0C331A604288C38842EA47
:104B400003439F4A4032847A42F834300288838893
:104B500042EA03439A4A4032847A02EBC402536029
:104B6000027B012A19D1964A0C3212680A43944BEF
:104B70000C331A604288038842EA0343904A403269
:104B8000847A42F83430C288838842EA03438C4AEC
:104B90004032847A02EBC4025360C27A3AB9884A3E
:104BA000121D12688A43864B1B1D1A6006E0844A58
:104BB000121D12680A43824B1B1D1A60028932B90A
:104BC0007F4A143212688A437D4B14331A6002897B
:104BD000012A06D17A4A143212680A43784B1433F8
:104BE0001A60427B012A06D1754A1C3212680A43B8
:104BF000734B1C331A60724A126822F00102704B28
:104C00001A6010BD00218171C171017241728172FF
:104C1000C1728170C17003210171022141710121B2
:104C2000018070476649096841F00101644A1160DA
:104C30001146096843F60E729143614A11601146AC
:104C4000096841EA002111601146096821F001015B
:104C50001160704721B1026842F48032026003E0C3
:104C6000026822F4803202607047E1B1026842F0CB
:104C7000800202604FF4C272125842F480734FF403
:104C8000C27213504FF4CA72125842F480734FF438
:104C9000CA7213504FF4D272125842F480734FF418
:104CA000D27213501BE0026822F0800202604FF4BF
:104CB000C272125822F480734FF4C27213504FF430
:104CC000CA72125822F480734FF4CA7213504FF410
:104CD000D272125822F480734FF4D272135070477C
:104CE00010B502460020936803F08063B3F1806F33
:104CF00000D110E0936803F00063B3F1006F01D1BD
:104D0000012008E0936803F08053B3F1805F01D184
:104D1000022000E00420042879D002F5C07303EBE0
:104D200000131B6803F0010402F5C07303EB0013CA
:104D30001C600B7A7BB94B7A0C8843EA445302F52A
:104D4000C07404EB00142468234302F5C07404EB20
:104D50000014236010E00B7A4C6843EAC4034C7AD9
:104D6000234302F5C07404EB00142468234302F5C6
:104D7000C07404EB001423608B7A03F00F038B7272
:104D800002F5C07303EB00135B6823F00F0402F518
:104D9000C07303EB00135C6002F5C07303EB0013F8
:104DA0005B688C7A234302F5C07404EB00146360E3
:104DB0008B7B1C064B7B44EA034403E00064004009
:104DC000006600400B7B44EA0323CC7A234302F5C0
:104DD000C07404EB0014A3608B7C1C064B7C44EA7B
:104DE00003440B7C44EA0323CC7B234302F5C074C9
:104DF00004EB0014E36002F5C07303EB00131B68BF
:104E000043F0010402F5C07303EB00131C6010BDF6
:104E100010B50246002321B1012907D002290FD184
:104E200009E09068F94C00EA04030BE09068F84C44
:104E300000EA040306E09068F64C00EA040301E08F
:104E4000002300BF00BFF44C181BA34216D007DCA0
:104E500083B16FF08060184470B1022818D111E05E
:104E6000B0F5007F10D0ED4C204448B1B0F5003FC4
:104E70000ED10BE002230DE000230BE0002309E03C
:104E8000002307E0012305E0012303E0012301E003
:104E9000002300BF00BFD8B210BD21B1012907D047
:104EA00002290FD109E0826842F0800282600AE0A4
:104EB000826842F40042826005E0826842F40002A7
:104EC000826000E000BF00BF704710B500F5D873E6
:104ED00003EB01131B6803F004031372137A53B935
:104EE00000F5D87303EB01131B6840F2FF7404EA6A
:104EF0005353136009E000F5D87303EB01131B68EB
:104F00006FF0604404EAD303536000F5D87303EBF9
:104F100001131B6803F00203537200F5D87303EB0F
:104F200001135B6803F00F03937200F5D87303EB72
:104F300001135B681B0AD37400F5D87303EB0113EC
:104F40009B68D37200F5D87303EB01139B681C0AAE
:104F5000147300F5D87303EB01139B681C0C547396
:104F600000F5D87303EB01139B681B0E937300F5D8
:104F7000D87303EB0113DB68D37300F5D87303EB2D
:104F80000113DB681C0A147400F5D87303EB0113DA
:104F9000DB681C0C547400F5D87303EB0113DB6859
:104FA0001B0E937421B9C36843F02003C36003E070
:104FB000036943F02003036110BD21B9C26842F0C8
:104FC0002002C26003E0026942F0200202617047E1
:104FD0000246002019B9D36803F0030006E0012956
:104FE00003D1136903F0030000E00020704710B5FF
:104FF00002460B4600204FF6FF71BBB9146824F03F
:10500000020444F00104146000E0491E546804F0F6
:105010000304012C01D00029F7D1546804F00304E3
:10502000012C01D0002032E0012030E0012B13D10F
:10503000146824F00304146000E0491E546804F06E
:1050400003040CB10029F8D1546804F003040CB136
:1050500000201CE001201AE0022B17D1146824F074
:10506000010444F00204146000E0491E546804F096
:105070000304022C01D00029F7D1546804F0030482
:10508000022C01D0002002E0012000E0002010BD31
:10509000014600200A6822F0010242F002020A6082
:1050A0004A6802F00302022A00D10120704701463B
:1050B0004FF6FF7200200B6823F002030B6000E044
:1050C000521E4B6803F00203022B01D1002AF7D1D4
:1050D0004B6803F00203022B00D001207047014609
:1050E00000208A6902F070007047014600208A693A
:1050F000100E7047014600208A69C2F307407047CE
:105100001AB143690B43436102E043698B43436136
:10511000704710B50246002001F4700343B1936953
:10512000C1F3130423400BB101202DE000202BE03C
:1051300001F0807343B15368C1F3130423400BB1F2
:10514000012021E000201FE001F0006343B19368DB
:10515000C1F3130423400BB1012015E0002013E03C
:1051600001F0007343B1D368C1F3130423400BB1C2
:10517000012009E0002007E01369C1F31304234074
:105180000BB1012000E0002010BD0022244B994209
:1051900002D10023836111E0C1F3130201F0007317
:1051A0000BB1C2600AE001F080630BB1026105E05F
:1051B00001F000630BB1826000E04260704702467C
:1051C000002002EA01030BB1012000E0002070473B
:1051D00070B504460D46002660692840002872D04C
:1051E000B5F5807F69D01DDC082D42D006DC012D8D
:1051F0002DD0022D31D0042D7FD134E0102D3ED0A2
:10520000202D42D0402D78D145E00000030000045D
:105210000003000800000310000100080001FFF770
:105220007000F030B5F5004F61D009DCB5F5007FB6
:105230004AD0B5F5806F4DD0B5F5006F5DD150E027
:10524000B5F5803F2DD0B5F5003F56D12FE0A068D1
:105250005549FFF7B4FF064651E0E0680321FFF728
:10526000AEFF06464BE0E0680821FFF7A8FF0646C0
:1052700045E0E0681021FFF7A2FF06463FE0206905
:105280000321FFF79CFF064639E020690821FFF75C
:1052900096FF064633E020691021FFF790FF06468F
:1052A0002DE060680821FFF78AFF064627E0606866
:1052B0001021FFF784FF064621E0A0690121FFF7D6
:1052C0007EFF06461BE01BE0A0690221FFF777FF87
:1052D000064614E0A0690421FFF771FF06460EE0C0
:1052E0000BE0A0697021FFF76AFF064607E06068DF
:1052F0000421FFF764FF064601E0002600BF00E03E
:105300000026304670BDB1F5007F3AD00FDC202971
:1053100028D006DC01291CD004291DD0082940D141
:105320001DE0402921D0B1F5807F3AD126E0B1F5CA
:10533000004F31D006DCB1F5806F25D0B1F5006F9C
:105340002FD124E0B1F5803F12D0B1F5003F28D134
:1053500011E0154A826025E00822C26022E0102296
:10536000C2601FE0082202611CE01022026119E005
:105370000822426016E01022426013E004224260DC
:1053800010E0042242600DE0042242600AE00022A4
:1053900082610422426005E00022826104224260B0
:1053A00000E000BF00BF704701010100704700002E
:1053B0000FB4044910B503AA029800F0B9F910BC63
:1053C0005DF814FB340000202DE9F0410E46044640
:1053D000002020622046E168884730B3252805D0A8
:1053E000D4E901219047206A401CF2E7E168204699
:1053F00000278847050018D0A5F14100192802D8D8
:1054000020354FF400673246294620462760FAF7D8
:10541000C9FE40B1012804D0F61D26F00706083663
:10542000D8E7361DD6E72846DAE7206ABDE8F081DE
:1054300070B50C460546012A05D02878800600D5AF
:10544000EA69002302E0012305E05B1C934202D2DB
:10545000E05C0028F9D1A869E618C01AA861286A9A
:10546000184428622846AFF3008004E0D5E9012102
:1054700014F8010B9047B442F8D32846AFF30080EC
:1054800070BD00002DE9F041064600241068752922
:10549000314616A510D0AFF30080002802DA404252
:1054A00013A507E031688A0701D512A502E0490774
:1054B00004D511A5012401E0AFF3008000210A22E8
:1054C00006F1240709E0B0FBF2FCB0FBF2F302FBAB
:1054D0001C00303078541846491C0028F3D123466C
:1054E0002A463046BDE8F04100F0B2B800000000A6
:1054F0002D0000002B0000002000000070B50446C5
:105500000D4621461068AFF300802188090502D5B9
:105510000F4A7A4402E00E4A7A440E32002104F126
:10552000240305E000F00F060009965D5E54491C57
:105530000028F7D120780023000704D5702D02D071
:1055400009B1022311322046BDE8704000F080B856
:10555000D602000030B505460B462A4613F8014B2B
:1055600012F8010B08B1A042F8D01CB1002802D0FB
:105570006D1CF1E7284630BD4FF0000200B5134620
:1055800094469646203922BFA0E80C50A0E80C5063
:10559000B1F12001BFF4F7AF090728BFA0E80C5014
:1055A00048BF0CC05DF804EB890028BF40F8042B0D
:1055B00008BF704748BF20F8022B11F0804F18BF7A
:1055C00000F8012B704700004FF0013C50F8042B0D
:1055D00051F8043B9A4221D1A2EB0C03934313EA06
:1055E000CC1317D150F8042B51F8043B9A4215D133
:1055F000A2EB0C03934313EACC130BD150F8042B0A
:1056000051F8043B9A4209D1A2EB0C03934313EAED
:10561000CC13DBD04FF00000704700BFD01A01BAA6
:10562000B1FA81F101F0180122FA01F0CB40C1F189
:105630002001DBB2C0B2C01A2CFA01F3D11A914397
:1056400011EAC311E6D17047704770477047704741
:105650002DE9F0470D4699469246044600F124088C
:105660000168880604D5E06921F01001216000E09E
:105670000120A84201DD471B00E00027A1697A193B
:1056800002EB0900081AA0612078C00602D4204667
:10569000AFF30080002608E0D4E901211AF80600E3
:1056A0009047206A401C761C20624E45F4DB20782F
:1056B000C0060AD52046AFF3008006E0D4E90121F8
:1056C00030209047206A401C2062381EA7F1010755
:1056D000F4DC07E0D4E9012118F805009047206ABE
:1056E000401C2062281EA5F10105F3DC2046AFF323
:1056F00000802078000602D50220BDE8F087012056
:10570000FBE710B5436913B1AFF3008001E0FFF789
:105710008FFE012010BD127800F124010A700022D2
:105720004A700122EDE711684FF0FF32E9E700000F
:10573000074B70B50D467B4400F011F8044628462F
:1057400000F020F810B14FF0FF3070BD204670BD62
:1057500055D4FFFF01694A1C02610878704700B503
:105760008FB0CDE901310021059105497944CDE99A
:10577000031011466846FFF727FE0FB000BD00007A
:10578000E5FFFFFF007B00F080007047754600F0EA
:1057900029F8AE4605006946534620F007008546C5
:1057A00018B020B5FDF7AEFABDE820404FF0000676
:1057B0004FF000074FF000084FF0000B21F00701F9
:1057C000AC46ACE8C009ACE8C009ACE8C009ACE83C
:1057D000C0098D4670470446AFF300802046FAF7B3
:1057E000F9FC000000487047381100203031323396
:1057F0003435363738394142434445464030580005
:105800003031323334353637383961626364656636
:10581000403078003458000800000020500000009C
:105820006C01000884580008500000204817000050
:10583000880100080000000000A24A0400000000E7
:1058400000000000010203040607080900001F0011
:105850001C001F001E001F001E001F001F001E0056
:105860001F001E001F0000000000000000000000DC
:1058700000000102030401020304060708090204F0
:045880000608000016
:0400000508000131BD
:00000001FF
